:0B00E200EF1FAC0670011E4C70F622F0
:1000BB008F118E108D0F8C0E780E74FF12009DE435
:0B00CB00FBFAF9F8C312008A70EE2265
:10000300C200E4F50CF50DE50D450C70097F507E3B
:10001300C3FDFC1200BBE50DF4450C6006E50D4580
:100023000C7002B200300010050DE50D7002050CD6
:10003300750A00750B09800EE50D150D7002150C80
:10004300750A00750B04E4F508F509C3E50994FF87
:10005300E5086480948050AFC3E509950DE50C6411
:1000630080F8E508648098500BC2B3AF0BAE0A1258
:1000730000E28009D2B3AF0BAE0A1200E20509E534
:070083000970C8050880C4E4
:030000000200D625
:0C00D600787FE4F6D8FD7581200200035D
:10008A00EB9FF5F0EA9E42F0E99D42F0E89C45F0CC
:01009A002243
:10009B007401FF3395E0FEFDFC080808E6CF2FF650
:1000AB0018E6CE3EF618E6CD3DF618E6CC3CF62229
:00000001FF
