:10087F001208B7D2B5D2B4D2B33001FDE50BB445EF
:10088F0002B2B3E50BB44602B2B4E50BB44702B201
:05089F00B5C20180E478
:100800000508A20392D5A2B2920330D57120036EDF
:10081000AF08E4F508EFD394784003C20222EFC397
:10082000944D400BEF94634055D202750C2022305A
:10083000024CEFD394184003C20222E509C313F51A
:1008400009EFC3940D4003430980150CE50C701F9C
:10085000C202E509F4650A7025E50DB4FD09E50E4F
:10086000B40204C2008002D200850A0BD20122E544
:0F0870000C54077009850D0E850A0D85090A22A3
:1008B700E4F589758CFF758ACCD2A9D28CD2AF2288
:03000B000208A444
:1008A400C0E0C0D075D000C007120800D007D0D077
:0308B400D0E0325F
:030000000208C72C
:0C08C700787FE4F6D8FD75812002087FE0
:00000001FF
