:0A054700CEC2B6C83A2000A1E600BB
:0A053C0002110000040A0000000094
:10032300D2B21204AA7FCC1204F17F441204F1303A
:10033300B5FD1204AA7FCC1204F17FBE1204F112A0
:1003430004D18F081204D18F097511008F12E512A1
:10035300751200F511E5084212E4AC11AD12120258
:1003630006E4FBFA7980783D1200FB8F0D8E0C8D2D
:100373000B8C0AE4FFFE7D207C41AB0DAA0CA90B7C
:10038300A80A1200FBE4FBFAF9783F12000A1202F2
:100393003F8E118F127C007D641202C0D3ED942036
:1003A300EC94004004C2B28002D2B27E057F4712B1
:1003B300051EAE11AF127C007D64120472AE11AF44
:1003C300127C007D0A1204727F2E120480AE11AFDC
:1003D300121204757E057F4E12051E7F0A120480D9
:0303E300020325ED
:07050C00120513D2B57F01B7
:0B051300AE071FEE6004000080F6221F
:1004AA00D2D730D721C2B57FF01205137FF01205DB
:1004BA0013D2B57F3C120513A2B57FF01205137F44
:0704CA00B412051380DC22CF
:1004D100E4FDFCEDC313FDC2B57F0112050C30B57F
:0F04E100034305807F3C1205130CBC08E6AF05F2
:0104F00022E9
:0204F100AD0755
:1004F300E4FCC2B57F01120513EDC313FD92B57F72
:080503003C12050C0CBC08EAD7
:01050B0022CD
:0D052E007F517E00EF1F70011E144E70F70C
:01053B00229D
:0E0472001202C07C007D0A1202C0ED2430FF91
:02048000AD07C6
:10048200C2AFC2B112052EE4FCED30E004D2B1805D
:1004920002C2B1EDC313FD12052E0CBC08EBD2B1A2
:0804A200D2AF12052E02052E57
:10051E008F828E83E493FF6006120480A380F522FF
:100003000202ABE86480F8E933E83360110460F07E
:10001300ED33EC337009E8FCE9FDEAFEEBFF220463
:1000230060DED3EB9FEA9EE99DE8C2E78CF0C2F75E
:1000330095F0400CE8CCF8E9CDF9EACEFAEBCFFB2A
:1000430012027685D0F05804700320D5B3E804700B
:10005300075002B2D50202B592D5EC0460F7E4CCA6
:10006300C0E0C398F8603B94186008400DD0E0FBF3
:1000730002028DE4FBFAC9FC8028E830E406E4C9F7
:10008300FBE4CAFCE830E305E4C9CACBFCE8540747
:100093006010F8C3E913F9EA13FAEB13FBEC13FC52
:1000A300D8F130F52FC3E49CFCEF9BFFEE9AFEEDF5
:1000B30099FDD0E0FBEF4E4D4C701222DB030202A0
:1000C300B2EC2CFCEF33FFEE33FEED33FDED30E706
:1000D300EB02028DEF2BFFEE3AFEED39FDD0E0FB94
:1000E30050130BBB00030202B5ED13FDEE13FEEF3D
:0800F30013FFEC13FC02028D67
:1000FB00EC4D6011E8497017ED33EC3304600DE4FF
:10010B00FCFFFEFD22E933E8330470F80202AB1268
:10011B00027658046009E4CC248150062850090269
:10012B0002B52840030202B2C0E0EB4A7044B9802A
:10013B0006D0E0FB0202A1EF4E701CBD8008EBFF66
:10014B00EAFEE9FD80EBE98DF0A4FEE5F00201E4A7
:10015B00E9CDF9EAFEEBFFEF89F0A4FCE5F0CE89DF
:10016B00F0A42EFFE435F0CD89F0A42DFEE435F09C
:10017B008067EF4E7005BD80D780C3EF8BF0A4ACCA
:10018B00F0EE8BF0A42CFCE435F0F8EF8AF0A42C05
:10019B00E5F038FCE433CB8DF0A42CFCE5F03BF818
:1001AB00EE8AF0A42CFCE5F038F8E433CF89F0A408
:1001BB002CFCE5F038CF3400CE89F0A42FFFE5F00E
:1001CB003EFEE433C98DF0A42EFEE5F039CD8AF066
:1001DB00A42FFFE5F03EFEE43DFD33D0E0FB5007DE
:1001EB000BBB000F0202B5EC2CFCEF33FFEE33FE22
:0601FB00ED33FD02028D50
:1002010075F020800E75F010800575F0087D007E78
:10021100007F003392D530D503120315EC33401023
:10022100EF33FFEE33FEED33FDEC33FCD5F0ED2281
:0E023100E5F0247EA2D513CC92E7CDCEFF22BD
:10023F00EDD2E7CD33EC3392D524814006E4FFFEB7
:10024F00FDFC22FCE4CFCECDCC24E0501174FF8016
:10025F00EDC3CC13CCCD13CDCE13CECF13CF0470B3
:07026F00F030D5DE0203159B
:10027600E9D2E7C933E833F892D5EDD2E7CD33ECCE
:0702860033FC5002B2D52247
:10028D00EC30E7100FBF000C0EBE00080DBD0004D2
:10029D000BEB6014A2D5EB13FCED92E7FD2274FF7E
:1002AD00FCFDFEFF22E480F8A2D574FF13FC7D80D7
:0302BD00E480EFEB
:030000000203E612
:0C03E600787FE4F6D8FD75811202042D2A
:1002C000BC000BBE0029EF8DF084FFADF022E4CC22
:1002D000F875F008EF2FFFEE33FEEC33FCEE9DECEB
:1002E000984005FCEE9DFE0FD5F0E9E4CEFD22ED31
:1002F000F8F5F0EE8420D21CFEADF075F008EF2F7B
:10030000FFED33FD4007985006D5F0F222C398FD6B
:050310000FD5F0EA2208
:0E031500C3E49FFFE49EFEE49DFDE49CFC22F9
:1003F200020323E493A3F8E493A34003F68001F2FB
:1004020008DFF48029E493A3F85407240CC8C3330B
:10041200C4540F4420C8834004F456800146F6DFDA
:10042200E4800B010204081020408090053CE47E29
:10043200019360BCA3FF543F30E509541FFEE493CF
:10044200A360010ECF54C025E060A840B8E493A396
:10045200FAE493A3F8E493A3C8C582C8CAC583CAC1
:10046200F0A3C8C582C8CAC583CADFE9DEE780BE79
:0105460000B4
:00000001FF
