:02020B000000F1
:0D0247007F017EBA7D13DDFEDEFCDFFA22B2
:100131008B458A468947C2B2C2B3E4FDD2B2C2B28C
:100141000DBD20F8E4FDD2B3D2B2C2B275484075FC
:100151004900E4FCAB45AA46A94775F002EDA4F5B8
:100161008285F0831200F9FFE54855F0FEE5495F0D
:100171004E6004D2B38002C2B3D2B2C2B2E548C368
:1001810013F548E54913F5490CBC0FC80DBD1EB662
:0D019100C2B3E4FDD2B2C2B20DBD1EF82211
:10019E0078087C007D007BFF7A02790B7E007F3C25
:1001AE001200D3E4F544E54425E02408F8E6FE0801
:1001BE00E6D394FFEE943F400BE54425E02408F887
:1001CE00E4F608F6E54475F020A4FFAEF0E544250C
:1001DE00E02408F808EF26F618EE36F60544E54456
:1001EE00B41EC37B007A007908120131E4F544E5B0
:0D01FE0044C3940650AD120247054480F240
:03000000020254A5
:0C025400787FE4F6D8FD75814902019E18
:10000300E709F608DFFA8046E709F208DFFA803EDF
:1000130088828C83E709F0A3DFFA8032E309F608CC
:10002300DFFA8078E309F208DFFA807088828C8334
:10003300E309F0A3DFFA806489828A83E0A3F608E8
:10004300DFFA805889828A83E0A3F208DFFA804CC2
:1000530080D280FA80C680D4806980F28033801099
:1000630080A680EA809A80A880DA80E280CA803302
:1000730089828A83ECFAE493A3C8C582C8CCC5837A
:10008300CCF0A3C8C582C8CCC583CCDFE9DEE7804A
:100093000D89828A83E493A3F608DFF9ECFAA9F0C9
:1000A300EDFB2289828A83ECFAE0A3C8C582C8CC1F
:1000B300C583CCF0A3C8C582C8CCC583CCDFEADE38
:1000C300E880DB89828A83E493A3F208DFF980CC9A
:1000D30088F0EF60010E4E60C388F0ED2402B40493
:1000E3000050B9F582EB2402B4040050AF2323453A
:0600F3008223900053730C
:1000F900BB0110E58229F582E5833AF583E0F5F045
:10010900A3E0225009E92582F886F008E622BBFE21
:100119000AE92582F8E2F5F008E222E5832AF58367
:08012900E993F5F0A3E993222C
:00000001FF
