:10080000C200C201C202E4F50AF50BF50C750D64D5
:10081000F50E750FC8E50BF4450A6006E50B450AB1
:100820007002B200E50DF4450C6006E50D450C7054
:1008300002B201E50FF4450E6006E50F450E7002A9
:10084000B20230000A050BE50B700C050A8008E5C2
:100850000B150B7002150A30010A050DE50D700C21
:10086000050C8008E50D150D7002150C30020A0507
:100870000FE50F700C050E8008E50F150F700215BF
:100880000EE4F508F509C3E50994FFE508648094D2
:10089000805082C3E509950BE50A6480F8E5086499
:1008A00080985004C2B28002D2B21208EBC3E509AC
:1008B000950DE50C6480F8E5086480985004C2B496
:1008C0008002D2B41208EBC3E509950FE50E6480EF
:1008D000F8E5086480985004C2B38002D2B31208CD
:0B08E000EB0509E509709F0508809BEF
:0408EB007F037E0009
:0B08EF00EF1FAC0670011E4C70F622DB
:030000000208FAF9
:0C08FA00787FE4F6D8FD7581200208002C
:00000001FF
