:1008E5002A2A2A2A2A2A20535443CFB5C1D04D4358
:1008F50055BAECCDE2BDD3CAD5B3CCD0F220323057
:1009050031302D31322D3130202A2A2A2A2A2A0D3A
:100915000A00BAECCDE2C2EB3A20307800D3C3BB73
:08092500A7C2EB3A2030780074
:10087F001209807E087FE51209903001FD7E097F05
:10088F0017120990E50B12095712092DAF0B120918
:10089F005B12092D3000317F2012092D7F201209A4
:1008AF002D7E097F22120990E50D12095712092D8D
:1008BF00AF0D12095B12092DE50E12095712092D02
:1008CF00AF0E12095B12092D7F0D12092D7F0A122F
:0608DF00092DC20180A4F6
:04095700C4540FFF76
:10095B0053070FEFD39409EF50042430FF222437B1
:02096B00FF2269
:100800000508A20392D5A2B2920330D57120036EDF
:10081000AF08E4F508EFD394784003C20222EFC397
:10082000944D400BEF94634055D202750C2022305A
:10083000024CEFD394184003C20222E509C313F51A
:1008400009EFC3940D4003430980150CE50C701F9C
:10085000C202E509F4650A7025E50DB4FD09E50E4F
:10086000B40204C2008002D200850A0BD20122E544
:0F0870000C54077009850D0E850A0D85090A22A3
:10098000E4F589758CFF758A83D2A9D28CD2AF2207
:03000B0002096D7A
:10096D00C0E0C0D075D000C007120800D007D0D0AD
:03097D00D0E03295
:0E09A0007F587E00EF1F70011E144E70F7226C
:10092D00AD07C2AFC2B11209A0E4FCED30E004D2B4
:10093D00B18002C2B1EDC313FD1209A00CBC08EBCE
:0A094D00D2B1D2AF1209A00209A036
:100990008F828E83E493FF600612092DA380F522D7
:030000000209AE44
:0C09AE00787FE4F6D8FD75812002087FF8
:00000001FF
