:10010E002A2A2A2A2A2A20535443CFB5C1D04D4336
:10011E0055BAECCDE2BDD3CAD5B3CCD0F220323035
:10012E0031302D31322D3130202A2A2A2A2A2A0D19
:10013E000A00BAECCDE2C2EB3A20307800D3C3BB52
:08014E00A7C2EB3A2030780053
:10000E001201ACD2B5D2B4D2B37E017F0E1201BCB6
:10001E003001FD7E017F401201BCE50BB44502B2FA
:10002E00B3E50BB44602B2B4E50BB44702B2B5E584
:10003E000B120180120156AF0B12018412015630C1
:10004E0000317F201201567F201201567E017F4B18
:10005E001201BCE50D120180120156AF0D12018482
:10006E00120156E50E120180120156AF0E120184D6
:10007E001201567F0D1201567F0A120156C20180DF
:01008E008FE2
:04018000C4540FFF55
:10018400AE0753060FEED394095005EE2430FF2238
:05019400EE2437FF22FC
:10008F000508A20392D5A2B2920330D57120036E58
:10009F00AF08E4F508EFD394784003C20222EFC310
:1000AF00944D400BEF94634055D202750C202230D3
:1000BF00024CEFD394184003C20222E509C313F593
:1000CF0009EFC3940D4003430980150CE50C701F15
:1000DF00C202E509F4650A7025E50DB4FD09E50EC8
:1000EF00B40204C2008002D200850A0BD20122E5BD
:0F00FF000C54077009850D0E850A0D85090A221C
:1001AC00E4F589758CFF758A83D2A9D28CD2AF22E3
:03000B0002019956
:10019900C0E0C0D075D000C00712008FD007D0D002
:0301A900D0E03271
:0E01CC007F587E00EF1F70011E144E70F72248
:10015600AD07C2AFC2B11201CCE4FCED30E004D26F
:10016600B18002C2B1EDC313FD1201CC0CBC08EB89
:0A017600D2B1D2AF1201CC0201CCCD
:1001BC008F828E83E493FF6006120156A380F52292
:030000000201DA20
:0C01DA00787FE4F6D8FD75812002000E4D
:00000001FF
