:10002D0048656C6C6F20776F726C6421005354437C
:10003D00CFB5C1D04D4355B4AEBFDAB2E2CAD4B3D9
:06004D00CCD0F20D0A0008
:0E0077007F517E00EF1F70011E144E70F722A5
:10000300AD07C2AFC2B1120077E4FCED30E004D219
:10001300B18002C2B1EDC313FD1200770CBC08EB33
:0A002300D2B1D2AF120077020077CD
:100067008F828E83E493FF6006120003A380F5223C
:100053007BFF7A00792DAE02AF011200677E007F2D
:040063003A020067F6
:0300000002008576
:0C008500787FE4F6D8FD75810702005377
:00000001FF
