:03035C000000009E
:0D03B6007F017EB07D13DDFEDEFCDFFA224C
:1002B6008B678A688969C2B2C2B3E4FFD2B2C2B29E
:1002C6000FBF20F8E4FFD2B3D2B2C2B27E10E4FD73
:1002D600AB67AA68A9698F827583001200F95E6010
:1002E60004D2B38002C2B3D2B2C2B2EEC313FE0DC1
:1002F600BD05DD7E10E4FDAB6AAA6BA96C8F827525
:1003060083001200F95E6004D2B38002C2B3D2B297
:10031600C2B2EEC313FE0DBD05DD7E10E4FDAB6D6E
:10032600AA6EA96F8F827583001200F95E6004D2EF
:10033600B38002C2B3D2B2C2B2EEC313FE0DBD0584
:10034600DD0FEF641E600241CCC2B3E4FFD2B2C23D
:06035600B20FBF1EF822E9
:1001B100780A7C007D007BFF7A03795C7E007F1EDC
:1001C1001200D378287C007D007BFF7A03797A7E48
:1001D100007F1E1200D378467C007D007BFF7A03EE
:1001E10079987E007F1E1200D3E4F56475650A7567
:1001F100661405640565056574032566F566E564A1
:10020100C394204003E4F564E565C394204003E40E
:10021100F565E566C394204003E4F566E4F508F569
:10022100097E00E5092564FFEE3508FE7C007D208E
:10023100120126AB09740A2BF8A6057E00E50925F3
:1002410065FFEE3508FE7C007D2012012674282B07
:10025100F8A6057E00E5092566FFEE3508FE7C005F
:100261007D2012012674462BF8A6050509E50970C3
:10027100020508641E450870A8756A00756B007553
:100281006C28756D00756E00756F467B007A00797C
:100291000A1202B6E4F508F509C3E5099406E50872
:1002A10064809480400221F31203B60509E50970C8
:0502B100E8050880E4EF
:030000000203C335
:0C03C300787FE4F6D8FD75816F0201B16F
:10000300E709F608DFFA8046E709F208DFFA803EDF
:1000130088828C83E709F0A3DFFA8032E309F608CC
:10002300DFFA8078E309F208DFFA807088828C8334
:10003300E309F0A3DFFA806489828A83E0A3F608E8
:10004300DFFA805889828A83E0A3F208DFFA804CC2
:1000530080D280FA80C680D4806980F28033801099
:1000630080A680EA809A80A880DA80E280CA803302
:1000730089828A83ECFAE493A3C8C582C8CCC5837A
:10008300CCF0A3C8C582C8CCC583CCDFE9DEE7804A
:100093000D89828A83E493A3F608DFF9ECFAA9F0C9
:1000A300EDFB2289828A83ECFAE0A3C8C582C8CC1F
:1000B300C583CCF0A3C8C582C8CCC583CCDFEADE38
:1000C300E880DB89828A83E493A3F208DFF980CC9A
:1000D30088F0EF60010E4E60C388F0ED2402B40493
:1000E3000050B9F582EB2402B4040050AF2323453A
:0600F3008223900053730C
:1000F900BB010CE58229F582E5833AF583E02250BC
:1001090006E92582F8E622BBFE06E92582F8E22205
:0D011900E58229F582E5833AF583E493221F
:10012600C2D5EC30E709B2D5E4C39DFDE49CFCEEF4
:1001360030E715B2D5E4C39FFFE49EFE12015CC30F
:10014600E49DFDE49CFC800312015C30D507C3E40A
:060156009FFFE49EFE2263
:10015C00BC000BBE0029EF8DF084FFADF022E4CC87
:10016C00F875F008EF2FFFEE33FEEC33FCEE9DEC50
:10017C00984005FCEE9DFE0FD5F0E9E4CEFD22ED96
:10018C00F8F5F0EE8420D21CFEADF075F008EF2FE0
:10019C00FFED33FD4007985006D5F0F222C398FDD1
:0501AC000FD5F0EA226E
:00000001FF
